:020000040800F2
:100000000028002071140008F913000801140008EA
:100010000914000811140008191400080000000059
:100020000000000000000000000000002114000893
:100030002D140008000000003914000845140008C1
:10004000B9140008B9140008B9140008B91400085C
:10005000B9140008B9140008B9140008B91400084C
:10006000B9140008B9140008B9140008B91400083C
:10007000B9140008B9140008B9140008B91400082C
:10008000B9140008B9140008B9140008B91400081C
:10009000B9140008B9140008B9140008B91400080C
:1000A000B9140008B9140008B9140008B9140008FC
:1000B00051140008B914000800000000B914000829
:1000C000B91400080000000000000000B914000886
:1000D00000000000B9140008B91400080000000076
:1000E000B9140008B9140008B91400080000000091
:1000F0000000000000000000000000000000000000
:0C01000000000000000000005FF808F1A3
:10010C0010B5054C237833B9044B13B10448AFF345
:10011C0000800123237010BD580000200000000057
:10012C00082B000808B5034B1BB103490348AFF378
:10013C00008008BD000000005C000020082B0008B7
:10014C0080B483B000AF7860094A7B6852F82330E2
:10015C00012B06D1064A7B68002142F823100123AB
:10016C0000E0002318460C37BD4680BC704700BF2A
:10017C007400002080B483B000AF7860044A7B68C0
:10018C00012142F8231000BF0C37BD4680BC7047DC
:10019C007400002080B582B000AF00237B6063E068
:1001AC00354A7B6852F8232034497B6841F8232078
:1001BC00334A7B6852F823202F497B6841F823206F
:1001CC00304A7B6852F823309BB219462E4801F016
:1001DC005BFC034619462A4A7B6842F82310264AE0
:1001EC007B6852F8232026497B6851F823309A42C9
:1001FC0037D1214A7B6852F8232020497B6851F87B
:10020C0023309A422DD11D4A7B6852F823201F4976
:10021C007B6851F823309A4215D0184A7B6852F803
:10022C0023201A497B6841F82320184A7B6852F82E
:10023C002330002B15D1164B4FF4FA721A607868E4
:10024C00FFF798FF0DE0124B1B68013B104A13603F
:10025C000F4B1B68002B04D10C4A7B68012142F820
:10026C0023107B6801337B607B68022B98DD00BF19
:10027C0000BF0837BD4680BD1800002024000020B8
:10028C000C0000200000002000080140300000207D
:10029C003C00002080B582B000AF0346FB71FB79B7
:1002AC00032B4BD801A252F823F000BFC90200085F
:1002BC00E9020008290300080903000801220821AB
:1002CC00214801F0F8FB012204211F4801F0F3FB47
:1002DC00012202211C4801F0EEFB30E00122082132
:1002EC00194801F0E8FB01220421174801F0E3FB57
:1002FC0000220221144801F0DEFB20E0012208213B
:10030C00114801F0D8FB002204210F4801F0D3FB67
:10031C00012202210C4801F0CEFB10E00022082142
:10032C00094801F0C8FB01220421074801F0C3FB76
:10033C0001220221044801F0BEFB00E000BF00BF17
:10034C000837BD4680BD00BF0008014080B582B0B3
:10035C0000AF0346FB71FB79032B4BD801A252F87B
:10036C0023F000BF81030008A1030008E10300088B
:10037C00C103000801224021214801F09CFB01220D
:10038C0020211F4801F097FB012210211C4801F08D
:10039C0092FB30E001224021194801F08CFB012234
:1003AC002021174801F087FB00221021144801F08E
:1003BC0082FB20E001224021114801F07CFB00224D
:1003CC0020210F4801F077FB012210210C4801F08D
:1003DC0072FB10E000224021094801F06CFB012265
:1003EC002021074801F067FB01221021044801F08D
:1003FC0062FB00E000BF00BF0837BD4680BD00BFF8
:10040C000008014080B582B000AF0346FB71FB7958
:10041C00032B0ED0032B1EDC012B13D0022B1AD175
:10042C0008210F4801F05FFB40210D4801F05BFBF8
:10043C0012E004210A4801F056FB2021084801F083
:10044C0052FB09E00221064801F04DFB1021044843
:10045C0001F049FB00E000BF00BF0837BD4680BD7E
:10046C000008014080B586B000AF7860144A07F1EF
:10047C00080307CA03C31A8000237B6118E001221A
:10048C007B6902FA03F399B207F108027B68134403
:10049C001B781A467B6942FA03F3DBB203F00103C3
:1004AC00DBB21A46074801F006FB7B6901337B611E
:1004BC007B69062BE3DD00BF00BF1837BD4680BD4E
:1004CC00202B0008000C014080B586B000AF78608E
:1004DC00144A07F1080307CA03C31A8000237B617F
:1004EC0018E080227B6902FA03F399B207F1080243
:1004FC007B6813441B781A467B6942FA03F3DBB220
:10050C0003F00103DBB21A46074801F0D4FA7B6909
:10051C0001337B617B69062BE3DD00BF00BF18371D
:10052C00BD4680BD202B0008000C014080B500AFFB
:10053C0000228021054801F0BEFA01224FF480719F
:10054C00024801F0B8FA00BF80BD00BF00080140AE
:10055C0080B500AF01228021054801F0ACFA0022E1
:10056C004FF48071024801F0A6FA00BF80BD00BFB5
:10057C000008014080B500AF00224FF4007105481F
:10058C0001F099FA01224FF48061024801F093FACC
:10059C0000BF80BD0008014080B500AF01224FF4C0
:1005AC000071054801F087FA00224FF4806102487F
:1005BC0001F081FA00BF80BD0008014080B500AF9A
:1005CC0000224FF40061054801F075FA01224FF446
:1005DC008051024801F06FFA00BF80BD0008014055
:1005EC0080B500AF01224FF40061054801F063FAB9
:1005FC0000224FF48051024801F05DFA00BF80BD2B
:10060C000008014080B582B000AF786039607B682B
:10061C00013B7B603B68013B3B60FFF787FF7B68DE
:10062C000C4A82FB03129210DB17D31A1846FFF701
:10063C0019FFFFF79FFF3B68064A82FB03129210DB
:10064C00DB17D31A1846FFF73FFF00BF0837BD462C
:10065C0080BD00BF6766666680B582B000AF78600B
:10066C0039607B68013B7B603B68013B3B60FFF77B
:10067C006FFF7A68114B83FB02139910D317C91AB9
:10068C000B469B000B445B00D11A0846FFF7EAFEB1
:10069C00FFF782FF3A68094B83FB02139910D317BB
:1006AC00C91A0B469B000B445B00D11A0846FFF796
:1006BC000BFF00BF0837BD4680BD00BF676666668E
:1006CC0080B582B000AF78607B68013B7B60FFF740
:1006DC0075FF7B68064A82FB03129210DB17D31A54
:1006EC001846FFF7BFFE00BF0837BD4680BD00BFF0
:1006FC006766666680B582B000AF78607B68013B48
:10070C007B60FFF76DFF7A68084B83FB021399102F
:10071C00D317C91A0B469B000B445B00D11A084631
:10072C00FFF7D2FE00BF0837BD4680BD6766666620
:10073C0080B500AF0020FFF703FD0346012B08D165
:10074C0001224FF4FC51934801F0B5F9924B02226F
:10075C001A70914B1B78012B40F01A818F4B1B7830
:10076C00032B63D801A252F823F000BF89070008BD
:10077C0097070008CD07000803080008874B0122E3
:10078C001A70642000F0F6FC57E00120FFF782FDA0
:10079C00834B1B68012B4BD1824B1B68013B814A5D
:1007AC001360804B1B68002B06D17F4B1B687D4A66
:1007BC0013607A4B02221A70642000F0DBFC37E0E5
:1007CC000220FFF767FD764B1B68012B32D1754B6E
:1007DC001B68013B734A1360724B1B68002B06D1DC
:1007EC00724B1B686F4A13606C4B03221A706420A7
:1007FC0000F0C0FC1EE00320FFF74CFD684B1B68AB
:10080C00012B19D1674B1B68013B664A1360654B82
:10081C001B68002B06D1664B1B68624A13605F4B4A
:10082C0001221A70642000F0A5FC05E000BF04E072
:10083C0000BF02E000BF00E000BF5E4B1B78032B43
:10084C0062D801A252F823F065080008730800086A
:10085C00A9080008DF080008564B02221A70642011
:10086C0000F09CFC57E00120FFF770FD524B1B6819
:10087C00012B4BD1514B1B68013B504A13604F4B22
:10088C001B68002B06D1484B1B684C4A1360494B24
:10089C0002221A70642000F081FC37E00220FFF77E
:1008AC0055FD454B1B68012B32D1444B1B68013B5A
:1008BC00424A1360414B1B68002B06D13B4B1B6813
:1008CC003E4A13603B4B03221A70642000F066FC16
:1008DC001EE00320FFF73AFD374B1B68012B19D1A3
:1008EC00364B1B68013B354A1360344B1B68002B9D
:1008FC0006D12F4B1B68314A13602E4B01221A7004
:10090C00642000F04BFC05E000BF04E000BF02E0F7
:10091C0000BF00E000BF2A4B1B78022B20D0022B1B
:10092C0031DC002B02D0012B07D02CE0244B012210
:10093C001A70012000F046FC2AE0224B1B68012BA8
:10094C0023D1184B1B681D4A126811461846FFF735
:10095C0059FE1B4B02221A70322000F033FC14E0BB
:10096C00184B1B68012B12D10E4B1B68134A1268D3
:10097C0011461846FFF770FE114B01221A703220F7
:10098C0000F020FC03E000BF02E000BF00E000BF6D
:10099C0000BF80BD00080140800000208A000020BC
:1009AC00E4000020900000204400002048000020BB
:1009BC00400000208B000020EC0000209400002060
:1009CC008C000020F400002080B500AF4E4B1B784B
:1009DC00002B02D0012B0CD016E001227E214B48BB
:1009EC0001F069F8484B01221A70192000F0C2FB83
:1009FC000AE0474B1B68012B05D10120FFF702FDD4
:100A0C00192000F0B7FB00BF424B1B78002B02D023
:100A1C00012B14D03FE00120FFF792FB0346012B82
:100A2C0036D13C4B01221A703B4B1B6801333A4ABE
:100A3C0013603A4B1B680133384A136028E00120DD
:100A4C00FFF77EFB0346012B10D1334B1B680133A0
:100A5C00314A1360314B1B680133304A13602E4B03
:100A6C001B68622B02DD2C4B01221A600220FFF75F
:100A7C0067FB0346012B0DD101224FF4FC51234897
:100A8C0001F019F8264B01221A7000F0F9F901E077
:100A9C0000BF00E000BF234B1B78022B1DD0022BA4
:100AAC002BDC002B02D0012B07D026E01D4B0122A2
:100ABC001A70192000F072FB24E01B4B1B68012BF1
:100ACC001DD1154B1B681846FFF7FAFD154B02227A
:100ADC001A70192000F062FB11E0134B1B68012BFC
:100AEC000FD10D4B1B681846FFF704FE192000F0C0
:100AFC0055FB0C4B01221A7003E000BF02E000BF53
:100B0C0000E000BF00BF80BD810000200008014054
:100B1C00E40000208300002040000020440000205E
:100B2C008000002082000020EC00002080B500AF87
:100B3C004E4B1B78002B02D0012B0CD016E001225F
:100B4C007E214B4800F0B7FF484B01221A70192048
:100B5C0000F038FB0AE0474B1B68012B05D1032042
:100B6C00FFF750FC192000F02DFB00BF424B1B7807
:100B7C00002B02D0012B14D03FE00120FFF7E0FA4C
:100B8C000346012B36D13C4B01221A703B4B1B68A0
:100B9C0001333A4A13603A4B1B680133384A1360ED
:100BAC0028E00120FFF7CCFA0346012B10D1334B80
:100BBC001B680133314A1360314B1B680133304AD7
:100BCC0013602E4B1B68622B02DD2C4B01221A602A
:100BDC000220FFF7B5FA0346012B0DD101224FF489
:100BEC00FC51234800F067FF264B01221A7000F0DD
:100BFC0047F901E000BF00E000BF234B1B78022B3C
:100C0C001DD0022B2BDC002B02D0012B07D026E0B1
:100C1C001D4B01221A70192000F0E8FA24E01B4B3E
:100C2C001B68012B1DD1154B1B681846FFF748FD9F
:100C3C00154B02221A70192000F0D8FA11E0134B50
:100C4C001B68012B0FD10D4B1B681846FFF752FD8B
:100C5C00192000F0CBFA0C4B01221A7003E000BFF4
:100C6C0002E000BF00E000BF00BF80BD8400002098
:100C7C0000080140F40000208600002048000020FD
:100C8C00400000208000002085000020FC00002097
:100C9C0080B500AF4E4B1B78002B02D0012B0CD033
:100CAC0016E001227E214B4800F005FF484B012243
:100CBC001A70192000F0AEFA0AE0474B1B68012BA2
:100CCC0005D10220FFF79EFB192000F0A3FA00BF0C
:100CDC00424B1B78002B02D0012B14D03FE001209B
:100CEC00FFF72EFA0346012B36D13C4B01221A702A
:100CFC003B4B1B6801333A4A13603A4B1B68013378
:100D0C00384A136028E00120FFF71AFA0346012B3A
:100D1C0010D1334B1B680133314A1360314B1B68C4
:100D2C000133304A13602E4B1B68622B02DD2C4BB7
:100D3C0001221A600220FFF703FA0346012B0DD1A2
:100D4C0001224FF4FC51234800F0B5FE264B012242
:100D5C001A7000F095F801E000BF00E000BF234BD3
:100D6C001B78022B1DD0022B2BDC002B02D0012B6D
:100D7C0007D026E01D4B01221A70192000F05EFAF4
:100D8C0024E01B4B1B68012B1DD1154B1B6818460F
:100D9C00FFF796FC154B02221A70192000F04EFA40
:100DAC0011E0134B1B68012B0FD10D4B1B68184620
:100DBC00FFF7A0FC192000F041FA0C4B01221A702D
:100DCC0003E000BF02E000BF00E000BF00BF80BD39
:100DDC008700002000080140040100208900002049
:100DEC0044000020400000208000002088000020EB
:100DFC000C01002080B500AF1F4B1B78042B1ED0BC
:100E0C00042B30DC022B02D0032B0CD02BE0FFF791
:100E1C00DBFD0020FFF794F90346012B25D1164B7F
:100E2C0003221A7021E0FFF781FE0020FFF788F9FA
:100E3C000346012B1BD1104B04221A7017E0FFF74D
:100E4C0027FF0020FFF77CF90346012B11D101226B
:100E5C004FF4FC51094800F02EFE074B01221A708A
:100E6C0000F00EF805E000BF04E000BF02E000BF98
:100E7C0000E000BF00BF80BD8000002000080140E2
:100E8C0080B400AF194B01221A70194B00221A7052
:100E9C00184B00221A70184B00221A70174B0022A4
:100EAC001A70174B00221A70164B00221A70164B30
:100EBC0000221A70154B00221A70154B00221A7062
:100ECC00144B00221A70144B00221A70134B002280
:100EDC001A70134B1B68134A1360134B1B68134A8D
:100EEC00136000BFBD4680BC704700BF800000206F
:100EFC00810000208200002083000020840000205C
:100F0C00850000208600002087000020880000203B
:100F1C00890000208A0000208B0000208C0000201B
:100F2C00400000209000002044000020940000208D
:100F3C0080B500AF00F0BCFA00F014F800F09AF89D
:100F4C0000F04CF8064801F015FAFFF799FF002065
:100F5C00FFF7A0F9FFF7ECFBFFF74CFF00BFF9E739
:100F6C009800002080B590B000AF07F1180328223C
:100F7C000021184601F096FD3B1D00221A605A60B4
:100F8C009A60DA601A610223BB610123BB621023F1
:100F9C00FB6200237B6307F11803184600F0BCFDCD
:100FAC000346002B01D000F0DEF80F237B600023FA
:100FBC00BB600023FB6000233B6100237B613B1D76
:100FCC000021184601F02AF80346002B01D000F04E
:100FDC00CAF800BF4037BD4680BD000080B586B062
:100FEC0000AF07F1080300221A605A609A60DA60B9
:100FFC003B4600221A605A601D4B4FF080421A602B
:10100C001B4B41F63F725A60194B00229A60184BE9
:10101C000A22DA60164B00221A61154B00229A61E3
:10102C00134801F057F90346002B01D000F09BF850
:10103C004FF48053BB6007F1080319460C4801F0CC
:10104C00EDFA0346002B01D000F08DF800233B6035
:10105C0000237B603B461946054801F0B9FC03466A
:10106C00002B01D000F07FF800BF1837BD4680BDC3
:10107C009800002080B586B000AF07F1080300226D
:10108C001A605A609A60DA602B4B9B692A4A43F0CB
:10109C0004039361284B9B6903F004037B607B681A
:1010AC00254B9B69244A43F008039361224B9B69AF
:1010BC0003F008033B603B6800227E211F4800F0D0
:1010CC00FAFC01224FF4FC511C4800F0F4FC002205
:1010DC0043F6FF711A4800F0EEFC41F6FE73BB605C
:1010EC000123FB6000233B6102237B6107F10803B2
:1010FC001946124800F04CFB43F6FF73BB6001230A
:10110C00FB6000233B6102237B6107F10803194656
:10111C000B4800F03DFB4FF46043BB600023FB60C9
:10112C0001233B6107F108031946044800F030FB2A
:10113C0000BF1837BD4680BD0010024000080140BA
:10114C00000C014080B582B000AF78607B681B68F2
:10115C00B3F1804F03D100F085F8FFF71BF800BF07
:10116C000837BD4680BD80B400AF72B600BF00BF6B
:10117C00FDE7000080B483B000AF7860054A7B685F
:10118C001360054B00221A6000BF0C37BD4680BCB3
:10119C00704700BFE0000020E400002080B483B062
:1011AC0000AF7860054A7B681360054B00221A601B
:1011BC0000BF0C37BD4680BC704700BFE800002064
:1011CC00EC00002080B483B000AF7860054A7B68E7
:1011DC001360054B00221A6000BF0C37BD4680BC63
:1011EC00704700BFF0000020F400002080B483B0F2
:1011FC0000AF7860054A7B681360054B00221A60CB
:10120C0000BF0C37BD4680BC704700BFF800002003
:10121C00FC00002080B483B000AF7860054A7B6886
:10122C001360054B00221A6000BF0C37BD4680BC12
:10123C00704700BF000100200401002080B483B07F
:10124C0000AF7860054A7B681360054B00221A607A
:10125C0000BF0C37BD4680BC704700BF08010020A2
:10126C000C01002080B400AF314B1B68002B0BDD50
:10127C002F4B1B68013B2E4A13602D4B1B68002B18
:10128C0002D12C4B01221A602B4B1B68002B0BDD5F
:10129C00294B1B68013B284A1360274B1B68002B0A
:1012AC0002D1264B01221A60254B1B68002B0BDD4B
:1012BC00234B1B68013B224A1360214B1B68002BFC
:1012CC0002D1204B01221A601F4B1B68002B0BDD37
:1012DC001D4B1B68013B1C4A13601B4B1B68002BEE
:1012EC0002D11A4B01221A60194B1B68002B0BDD23
:1012FC00174B1B68013B164A1360154B1B68002BE0
:10130C0002D1144B01221A60134B1B68002B0BDD0E
:10131C00114B1B68013B104A13600F4B1B68002BD1
:10132C0002D10E4B01221A6000BFBD4680BC704733
:10133C00E0000020E4000020E8000020EC00002089
:10134C00F0000020F4000020F8000020FC00002039
:10135C000001002004010020080100200C010020E5
:10136C0080B483B000AF0E4B9B690D4A43F0010370
:10137C0093610B4B9B6903F001037B607B68084B0B
:10138C00DB69074A43F08053D361054BDB6903F0FB
:10139C0080533B603B6800BF0C37BD4680BC704738
:1013AC000010024080B584B000AF78607B681B6889
:1013BC00B3F1804F13D10C4BDB690B4A43F00103A3
:1013CC00D361094BDB6903F00103FB60FB6800226E
:1013DC0000211C2000F0A5F91C2000F0BEF900BF74
:1013EC001037BD4680BD00BF0010024080B400AF76
:1013FC0000BFFDE780B400AF00BFFDE780B400AFD5
:10140C0000BFFDE780B400AF00BFFDE780B400AFC4
:10141C0000BFFDE780B400AF00BFBD4680BC704785
:10142C0080B400AF00BFBD4680BC704780B400AF35
:10143C0000BFBD4680BC704780B500AF00F07EF8A1
:10144C0000BF80BD80B500AF024800F0DFFF00BFD9
:10145C0080BD00BF9800002080B400AF00BFBD4627
:10146C0080BC7047FFF7F8FF0B480C490C4A00236F
:10147C0002E0D458C4500433C4188C42F9D3094A3E
:10148C00094C002301E013600432A242FBD301F0AB
:10149C0011FBFFF74DFD70470000002058000020A5
:1014AC00582B00085800002014010020FEE7000013
:1014BC0080B500AF084B1B68074A43F0100313605C
:1014CC00032000F023F90F2000F008F8FFF748FF85
:1014DC000023184680BD00BF0020024080B582B0BA
:1014EC0000AF7860124B1A68124B1B7819464FF4F8
:1014FC007A73B3FBF1F3B2FBF3F3184600F03BF94C
:10150C000346002B01D001230EE07B680F2B0AD879
:10151C00002279684FF0FF3000F003F9064A7B682F
:10152C001360002300E0012318460837BD4680BD38
:10153C004C000020540000205000002080B400AF6C
:10154C00054B1B781A46054B1B681344034A136062
:10155C0000BFBD4680BC7047540000201001002025
:10156C0080B400AF024B1B681846BD4680BC704768
:10157C001001002080B485B000AF78607B6803F068
:10158C000703FB600C4BDB68BB60BA684FF6FF03CC
:10159C001340BB60FB681A02BB68134343F0BF6384
:1015AC0043F40033BB60044ABB68D36000BF1437FC
:1015BC00BD4680BC704700BF00ED00E080B400AFBA
:1015CC00044BDB681B0A03F007031846BD4680BCBE
:1015DC00704700BF00ED00E080B483B000AF03465D
:1015EC00FB7197F90730002B0BDBFB7903F01F0223
:1015FC00064997F907305B09012000FA02F241F81D
:10160C00232000BF0C37BD4680BC704700E100E0D2
:10161C0080B483B000AF03463960FB7197F9073093
:10162C00002B0ADB3B68DAB20C4997F90730120140
:10163C00D2B20B4483F800230AE03B68DAB20849C3
:10164C00FB7903F00F03043B1201D2B20B441A7660
:10165C0000BF0C37BD4680BC704700BF00E100E006
:10166C0000ED00E080B489B000AFF860B9607A603A
:10167C00FB6803F00703FB61FB69C3F10703042B51
:10168C0028BF0423BB61FB690433062B02D9FB6919
:10169C00033B00E000237B614FF0FF32BB6902FA91
:1016AC0003F3DA43BB681A407B699A404FF0FF3171
:1016BC007B6901FA03F3D9437B680B40134318464B
:1016CC002437BD4680BC704780B582B000AF7860CF
:1016DC007B68013BB3F1807F01D301230FE00A4A01
:1016EC007B68013B53600F214FF0FF30FFF790FFF9
:1016FC00054B00229A60044B07221A6000231846FF
:10170C000837BD4680BD00BF10E000E080B582B058
:10171C0000AF78607868FFF72DFF00BF0837BD4633
:10172C0080BD80B586B000AF0346B9607A60FB73AC
:10173C0000237B61FFF742FF78617A68B9687869AA
:10174C00FFF790FF024697F90F3011461846FFF746
:10175C005FFF00BF1837BD4680BD80B582B000AFBB
:10176C000346FB7197F907301846FFF735FF00BFAA
:10177C000837BD4680BD80B582B000AF7860786810
:10178C00FFF7A2FF034618460837BD4680BD000090
:10179C0080B48BB000AF7860396000237B6200238B
:1017AC003B6261E101227B6A02FA03F3FB613B6855
:1017BC001B68FA691340BB61BA69FB699A4240F035
:1017CC0050813B685B68974A93425ED0954A93423E
:1017DC0075D8954A934258D0934A93426FD8934AFE
:1017EC00934252D0914A934269D8914A93424CD039
:1017FC008F4A934263D88F4A934246D08D4A934284
:10180C005DD8122B2AD8122B59D801A252F823F0EA
:10181C00971800087118000883180008C5180008EC
:10182C00CB180008CB180008CB180008CB18000800
:10183C00CB180008CB180008CB180008CB180008F0
:10184C00CB180008CB180008CB180008CB180008E0
:10185C00CB180008791800088D180008764A9342B6
:10186C0013D02CE03B68DB683B6229E03B68DB680B
:10187C0004333B6224E03B68DB6808333B621FE0C7
:10188C003B68DB680C333B621AE03B689B68002BBF
:10189C0002D104233B6213E03B689B68012B05D10A
:1018AC0008233B627B68FA691A6109E008233B62F2
:1018BC007B68FA695A6103E000233B6200E000BFD9
:1018CC00BB69FF2B01D87B6801E07B6804337B612B
:1018DC00BB69FF2B02D87B6A9B0002E07B6A083B4A
:1018EC009B003B617B691A680F213B6901FA03F38A
:1018FC00DB431A40396A3B6901FA03F31A437B69EB
:10190C001A603B685B6803F08053002B00F0A980E1
:10191C004A4B9B69494A43F001039361474B9B69CE
:10192C0003F00103BB60BB68454A7B6A9B0802332A
:10193C0052F82330FB607B6A03F003039B000F22F9
:10194C0002FA03F3DB43FA681340FB607B683D4A01
:10195C0093420DD07B683C4A934207D07B683B4A4C
:10196C00934201D1022304E0032302E0012300E0AF
:10197C0000237A6A02F0030292009340FA68134340
:10198C00FB602F497B6A9B080233FA6841F82320DD
:10199C003B685B6803F48013002B06D02C4B9A68D1
:1019AC002B49BB6913438B6006E0294B9A68BB69D2
:1019BC00DB43274913408B603B685B6803F40013DF
:1019CC00002B06D0224BDA682149BB691343CB604C
:1019DC0006E01F4BDA68BB69DB431D491340CB6043
:1019EC003B685B6803F40033002B06D0184B5A6835
:1019FC001749BB6913434B6006E0154B5A68BB692A
:101A0C00DB43134913404B603B685B6803F4803342
:101A1C00002B1FD00E4B1A680D49BB6913430B608A
:101A2C001FE000BF00003210000031100000221037
:101A3C0000002110000012100000111000100240D4
:101A4C000000014000080140000C01400010014062
:101A5C00000401400B4B1A68BB69DB430949134076
:101A6C000B607B6A01337B623B681A687B6A22FAE3
:101A7C0003F3002B7FF496AE00BF00BF2C37BD469E
:101A8C0080BC70470004014080B485B000AF786022
:101A9C000B467B807B689A687B881340002B02D0B6
:101AAC000123FB7301E00023FB73FB7B1846143707
:101ABC00BD4680BC704780B483B000AF78600B46E5
:101ACC007B8013467B707B78002B03D07A887B68F5
:101ADC001A6103E07B881A047B681A6100BF0C371B
:101AEC00BD4680BC704780B485B000AF78600B46B3
:101AFC007B807B68DB68FB607A88FB6813401A0488
:101B0C00FB68D9437B880B401A437B681A6100BF82
:101B1C001437BD4680BC704780B586B000AF786086
:101B2C007B68002B01D1012372E27B681B6803F0F8
:101B3C000103002B00F08780924B5B6803F00C03D1
:101B4C00042B0CD08F4B5B6803F00C03082B12D1C9
:101B5C008C4B5B6803F48033B3F5803F0BD1894B1E
:101B6C001B6803F40033002B6CD07B685B68002B84
:101B7C0068D101234CE27B685B68B3F5803F06D1EA
:101B8C00804B1B687F4A43F4803313602EE07B68E4
:101B9C005B68002B0CD17B4B1B687A4A23F4803397
:101BAC001360784B1B68774A23F4802313601DE085
:101BBC007B685B68B3F5A02F0CD1724B1B68714A24
:101BCC0043F4802313606F4B1B686E4A43F48033DD
:101BDC0013600BE06B4B1B686A4A23F48033136071
:101BEC00684B1B68674A23F4802313607B685B682F
:101BFC00002B13D0FFF7B4FC386108E0FFF7B0FC02
:101C0C0002463B69D31A642B01D9032300E25D4BD6
:101C1C001B6803F40033002BF0D014E0FFF7A0FC9A
:101C2C00386108E0FFF79CFC02463B69D31A642B31
:101C3C0001D90323ECE1534B1B6803F40033002B55
:101C4C00F0D100E000BF7B681B6803F00203002B9F
:101C5C0063D04C4B5B6803F00C03002B0BD0494B4F
:101C6C005B6803F00C03082B1CD1464B5B6803F438
:101C7C008033002B16D1434B1B6803F00203002B5F
:101C8C0005D07B681B69012B01D00123C0E13D4BC2
:101C9C001B6823F0F8027B685B69DB00394913434E
:101CAC000B603AE07B681B69002B20D0364B01227D
:101CBC001A60FFF755FC386108E0FFF751FC02464B
:101CCC003B69D31A022B01D90323A1E12D4B1B68CD
:101CDC0003F00203002BF0D02A4B1B6823F0F80210
:101CEC007B685B69DB00274913430B6015E0264BCF
:101CFC0000221A60FFF734FC386108E0FFF730FC73
:101D0C0002463B69D31A022B01D9032380E11D4BF8
:101D1C001B6803F00203002BF0D17B681B6803F0F7
:101D2C000803002B3AD07B689B69002B19D0174B0A
:101D3C0001221A60FFF714FC386108E0FFF710FC71
:101D4C0002463B69D31A022B01D9032360E10D4BE8
:101D5C005B6A03F00203002BF0D0012000F09CFA28
:101D6C001CE00A4B00221A60FFF7FAFB38610FE007
:101D7C00FFF7F6FB02463B69D31A022B08D9032363
:101D8C0046E100BF00100240000042428004424283
:101D9C00924B5B6A03F00203002BE9D17B681B6852
:101DAC0003F00403002B00F0A6800023FB758B4B83
:101DBC00DB6903F08053002B0DD1884BDB69874A1C
:101DCC0043F08053D361854BDB6903F08053BB60D8
:101DDC00BB680123FB75824B1B6803F48073002BDB
:101DEC0018D17F4B1B687E4A43F480731360FFF756
:101DFC00B7FB386108E0FFF7B3FB02463B69D31A27
:101E0C00642B01D9032303E1754B1B6803F4807326
:101E1C00002BF0D07B68DB68012B06D16F4B1B6A63
:101E2C006E4A43F0010313622DE07B68DB68002BE4
:101E3C000CD16A4B1B6A694A23F001031362674B8E
:101E4C001B6A664A23F0040313621CE07B68DB68A0
:101E5C00052B0CD1614B1B6A604A43F004031362DF
:101E6C005E4B1B6A5D4A43F0010313620BE05B4B54
:101E7C001B6A5A4A23F001031362584B1B6A574AD8
:101E8C0023F0040313627B68DB68002B15D0FFF78B
:101E9C0067FB38610AE0FFF763FB02463B69D31A24
:101EAC0041F28832934201D90323B1E04B4B1B6AB8
:101EBC0003F00203002BEED014E0FFF751FB386166
:101ECC000AE0FFF74DFB02463B69D31A41F2883218
:101EDC00934201D903239BE0404B1B6A03F002039E
:101EEC00002BEED1FB7D012B05D13C4BDB693B4A32
:101EFC0023F08053D3617B68DB69002B00F0878073
:101F0C00364B5B6803F00C03082B61D07B68DB69F4
:101F1C00022B46D1334B00221A60FFF721FB3861AC
:101F2C0008E0FFF71DFB02463B69D31A022B01D9CF
:101F3C0003236DE0294B1B6803F00073002BF0D1D9
:101F4C007B681B6AB3F5803F08D1244B5B6823F494
:101F5C0000327B689B68214913434B601F4B5B68C5
:101F6C0023F474127B68196A7B685B6A0B431B4908
:101F7C0013434B601B4B01221A60FFF7F1FA3861D7
:101F8C0008E0FFF7EDFA02463B69D31A022B01D9A0
:101F9C0003233DE0114B1B6803F00073002BF0D0C2
:101FAC0035E0104B00221A60FFF7DAFA386108E0CE
:101FBC00FFF7D6FA02463B69D31A022B01D9032349
:101FCC0026E0064B1B6803F00073002BF0D11EE0DB
:101FDC007B68DB69012B07D1012319E0001002405B
:101FEC0000700040600042420B4B5B68FB60FB687A
:101FFC0003F480327B681B6A9A4206D1FB6803F4B7
:10200C0070127B685B6A9A4201D0012300E00023C6
:10201C0018461837BD4680BD0010024080B584B00C
:10202C0000AF786039607B68002B01D10123D0E0D0
:10203C006A4B1B6803F007033A689A4210D9674B46
:10204C001B6823F0070265493B6813430B60634B25
:10205C001B6803F007033A689A4201D00123B8E0E9
:10206C007B681B6803F00203002B20D07B681B6885
:10207C0003F00403002B05D0594B5B68584A43F41A
:10208C00E06353607B681B6803F00803002B05D0EA
:10209C00534B5B68524A43F460535360504B5B683C
:1020AC0023F0F0027B689B684D4913434B607B68BF
:1020BC001B6803F00103002B40D07B685B68012B8D
:1020CC0007D1474B1B6803F40033002B15D10123B8
:1020DC007FE07B685B68022B07D1414B1B6803F0E8
:1020EC000073002B09D1012373E03D4B1B6803F0F7
:1020FC000203002B01D101236BE0394B5B6823F009
:10210C0003027B685B68364913434B60FFF728FA80
:10211C00F8600AE0FFF724FA0246FB68D31A41F292
:10212C008832934201D9032353E02D4B5B6803F0B3
:10213C000C027B685B689B009A42EBD1274B1B68B7
:10214C0003F007033A689A4210D2244B1B6823F021
:10215C00070222493B6813430B60204B1B6803F0BA
:10216C0007033A689A4201D0012332E07B681B686E
:10217C0003F00403002B08D0194B5B6823F4E062D6
:10218C007B68DB68164913434B607B681B6803F064
:10219C000803002B09D0124B5B6823F460527B6858
:1021AC001B69DB000E4913434B6000F021F802461B
:1021BC000B4B5B681B0903F00F030A49CB5C22FA3B
:1021CC0003F3094A1360094B1B681846FFF786F99D
:1021DC00002318461037BD4680BD00BF00200240CA
:1021EC00001002402C2B00084C0000205000002056
:1021FC0080B487B000AF0023FB600023BB600023DA
:10220C007B6100237B6000233B611E4B5B68FB60A2
:10221C00FB6803F00C03042B02D0082B03D027E03F
:10222C00194B3B6127E0FB689B0C03F00F03174A2B
:10223C00D35C7B60FB6803F48033002B10D0114B14
:10224C005B685B0C03F00103114AD35CBB607B68D9
:10225C000D4A03FB02F2BB68B2FBF3F37B6104E0B3
:10226C007B680C4A02FB03F37B617B693B6102E0F8
:10227C00054B3B6100BF3B6918461C37BD4680BC13
:10228C00704700BF0010024000127A003C2B00087F
:10229C004C2B000800093D0080B485B000AF78607D
:1022AC000A4B1B680A4AA2FB03235B0A7A6802FBEF
:1022BC0003F3FB6000BFFB685A1EFA60002BF9D1D8
:1022CC0000BF00BF1437BD4680BC70474C000020D7
:1022DC00D34D621080B582B000AF78607B68002B64
:1022EC0001D1012341E07B6893F83D30DBB2002B38
:1022FC0006D17B68002283F83C207868FFF752F8FF
:10230C007B68022283F83D207B681A687B68043363
:10231C001946104600F06EFA7B68012283F84620BD
:10232C007B68012283F83E207B68012283F83F20E2
:10233C007B68012283F840207B68012283F84120CE
:10234C007B68012283F842207B68012283F84320BA
:10235C007B68012283F844207B68012283F84520A6
:10236C007B68012283F83D20002318460837BD46C0
:10237C0080BD000080B485B000AF78607B6893F8B6
:10238C003D30DBB2012B01D0012335E07B6802220A
:10239C0083F83D207B681B68DA687B681B6842F019
:1023AC000102DA607B681B68164A934209D07B688D
:1023BC001B68B3F1804F04D07B681B68124A9342B0
:1023CC0011D17B681B689B6803F00703FB60FB68FB
:1023DC00062B10D07B681B681A687B681B6842F060
:1023EC0001021A6007E07B681B681A687B681B682F
:1023FC0042F001021A60002318461437BD4680BC17
:10240C00704700BF002C01400004004080B582B032
:10241C0000AF78607B681B681B6903F00203022B1A
:10242C0022D17B681B68DB6803F00203022B1BD1F3
:10243C007B681B686FF002021A617B6801221A77B5
:10244C007B681B689B6903F00303002B03D078683F
:10245C0000F0B4F905E0786800F0A7F9786800F0AE
:10246C00B6F97B6800221A777B681B681B6903F03E
:10247C000403042B22D17B681B68DB6803F0040384
:10248C00042B1BD17B681B686FF004021A617B68FC
:10249C0002221A777B681B689B6903F44073002B3C
:1024AC0003D0786800F08AF905E0786800F07DF9CF
:1024BC00786800F08CF97B6800221A777B681B68BF
:1024CC001B6903F00803082B22D17B681B68DB68AF
:1024DC0003F00803082B1BD17B681B686FF0080204
:1024EC001A617B6804221A777B681B68DB6903F02E
:1024FC000303002B03D0786800F060F905E07868DE
:10250C0000F053F9786800F062F97B6800221A77C2
:10251C007B681B681B6903F01003102B22D17B68AE
:10252C001B68DB6803F01003102B1BD17B681B6846
:10253C006FF010021A617B6808221A777B681B689F
:10254C00DB6903F44073002B03D0786800F036F994
:10255C0005E0786800F029F9786800F038F97B68B4
:10256C0000221A777B681B681B6903F00103012B9F
:10257C000ED17B681B68DB6803F00103012B07D1CC
:10258C007B681B686FF001021A617868FEF7DAFD50
:10259C007B681B681B6903F08003802B0ED17B6862
:1025AC001B68DB6803F08003802B07D17B681B68FA
:1025BC006FF080021A61786800F06BFA7B681B6818
:1025CC001B6903F04003402B0ED17B681B68DB6852
:1025DC0003F04003402B07D17B681B686FF040026F
:1025EC001A61786800F0FCF87B681B681B6903F0C3
:1025FC002003202B0ED17B681B68DB6803F02003C3
:10260C00202B07D17B681B686FF020021A61786859
:10261C0000F036FA00BF0837BD4680BD80B584B0E7
:10262C0000AF786039600023FB737B6893F83C3013
:10263C00012B01D10223B4E07B68012283F83C20FA
:10264C007B68022283F83D207B681B689B68BB601B
:10265C00BB6823F07703BB60BB6823F47F43BB608C
:10266C007B681B68BA689A603B681B68B3F5005FAF
:10267C003ED0B3F5005F00F28780B3F5805F00F0C9
:10268C008680B3F5805F7FD8702B1AD0702B7BD8E7
:10269C00602B50D0602B77D8502B3CD0502B73D85C
:1026AC00402B58D0402B6FD8302B64D0302B6BD8AC
:1026BC00202B60D0202B67D8002B5CD0102B5AD04D
:1026CC0062E07B6818683B6899683B685A683B68AD
:1026DC00DB6800F05EF97B681B689B68BB60BB68BD
:1026EC0043F07703BB607B681B68BA689A604FE065
:1026FC007B6818683B6899683B685A683B68DB687C
:10270C0000F047F97B681B689A687B681B6842F489
:10271C0080429A603CE07B6818683B6859683B686B
:10272C00DB681A4600F0BEF87B681B68502118461F
:10273C0000F015F92CE07B6818683B6859683B6819
:10274C00DB681A4600F0DCF87B681B6860211846D1
:10275C0000F005F91CE07B6818683B6859683B6819
:10276C00DB681A4600F09EF87B681B68402118460F
:10277C0000F0F5F80CE07B681A683B681B6819469A
:10278C00104600F0ECF803E00123FB7300E000BFFF
:10279C007B68012283F83D207B68002283F83C2073
:1027AC00FB7B18461037BD4680BD80B483B000AFAC
:1027BC00786000BF0C37BD4680BC704780B483B0D6
:1027CC0000AF786000BF0C37BD4680BC704780B44A
:1027DC0083B000AF786000BF0C37BD4680BC70473B
:1027EC0080B483B000AF786000BF0C37BD4680BCAE
:1027FC007047000080B485B000AF786039607B68AA
:10280C001B68FB607B68254A934207D07B68B3F159
:10281C00804F03D07B68224A934208D1FB6823F097
:10282C007003FB603B685B68FA681343FB607B6872
:10283C001A4A934207D07B68B3F1804F03D07B6870
:10284C00174A934208D1FB6823F44073FB603B6842
:10285C00DB68FA681343FB60FB6823F080023B687B
:10286C005B691343FB607B68FA681A603B689A6883
:10287C007B68DA623B681A687B689A627B68074AF5
:10288C00934203D13B681A697B681A637B68012207
:10289C005A6100BF1437BD4680BC7047002C014004
:1028AC000004004080B487B000AFF860B9607A6073
:1028BC00FB681B6A7B61FB681B6A23F00102FB68E7
:1028CC001A62FB689B693B613B6923F0F0033B6137
:1028DC007B681B013A6913433B617B6923F00A0354
:1028EC007B617A69BB6813437B61FB683A699A61C7
:1028FC00FB687A691A6200BF1C37BD4680BC704702
:10290C0080B487B000AFF860B9607A60FB681B6A6E
:10291C007B61FB681B6A23F01002FB681A62FB6880
:10292C009B693B613B6923F470433B617B681B03F0
:10293C003A6913433B617B6923F0A0037B61BB685D
:10294C001B017A6913437B61FB683A699A61FB68E6
:10295C007A691A6200BF1C37BD4680BC704780B4D0
:10296C0085B000AF786039607B689B68FB60FB6862
:10297C0023F07003FB603A68FB68134343F00703D2
:10298C00FB607B68FA689A6000BF1437BD4680BC58
:10299C00704780B487B000AFF860B9607A603B6074
:1029AC00FB689B687B617B6923F47F437B613B689D
:1029BC001A027B681A43BB6813437A6913437B6121
:1029CC00FB687A699A6000BF1C37BD4680BC7047B3
:1029DC0080B485B000AF786039607B6893F83C3088
:1029EC00012B01D1022341E07B68012283F83C20BA
:1029FC007B68022283F83D207B681B685B68FB6068
:102A0C007B681B689B68BB60FB6823F07003FB60F2
:102A1C003B681B68FA681343FB607B681B68FA68A9
:102A2C005A607B681B68144A934209D07B681B6808
:102A3C00B3F1804F04D07B681B68104A93420CD1D1
:102A4C00BB6823F08003BB603B685B68BA681343C8
:102A5C00BB607B681B68BA689A607B68012283F84C
:102A6C003D207B68002283F83C2000231846143755
:102A7C00BD4680BC704700BF002C014000040040E4
:102A8C0080B483B000AF786000BF0C37BD4680BC0B
:102A9C00704780B483B000AF786000BF0C37BD4680
:102AAC0080BC704703460244934200D1704703F840
:102ABC00011BF9E770B500260C4D0D4C641BA410DE
:102ACC00A64209D100F01AF800260A4D0A4C641BE4
:102ADC00A410A64205D170BD55F8043B98470136A9
:102AEC00EEE755F8043B98470136F2E7502B000807
:102AFC00502B0008502B0008542B0008F8B500BFD1
:102B0C00F8BC08BC9E467047F8B500BFF8BC08BCC2
:042B1C009E4670471A
:102B2000C0F9A4B0999282F88090000000000000E3
:102B3000000000000102030406070809020304055F
:102B4000060708090A0B0C0D0E0F101001020000F9
:042B50003101000847
:042B54000D01000867
:102B5800002000000040000000800000010000008C
:102B68000100000001000000010000000100000059
:102B78000100000001000000010000000100000049
:102B8800010000000100000001000000F401000045
:102B98000A00000006000000040000000024F40001
:082BA800100000000100000014
:04000005080014716A
:00000001FF
