:020000040800F2
:1000000000280020A10B00083D0B0008450B00084C
:100010004D0B0008550B00085D0B000800000000A8
:10002000000000000000000000000000650B000858
:10003000710B0008000000007D0B0008890B000810
:10004000E90B0008E90B0008E90B0008E90B0008C0
:10005000E90B0008E90B0008E90B0008E90B0008B0
:10006000E90B0008E90B0008E90B0008E90B0008A0
:10007000E90B0008E90B0008E90B0008E90B000890
:10008000E90B0008E90B0008E90B0008E90B000880
:10009000E90B0008E90B0008E90B0008E90B000870
:1000A000E90B0008E90B0008E90B0008E90B000860
:1000B000E90B0008E90B000800000000E90B00084C
:1000C000E90B00080000000000000000E90B000838
:1000D00000000000E90B0008E90B00080000000028
:1000E000E90B0008E90B0008E90B0008000000001C
:1000F0000000000000000000000000000000000000
:0C01000000000000000000005FF808F1A3
:10010C0010B5054C237833B9044B13B10448AFF345
:10011C0000800123237010BD180000200000000097
:10012C00201F000808B5034B1BB103490348AFF36C
:10013C00008008BD000000001C000020201F0008EB
:10014C0080B483B000AF7860094A7B6852F82330E2
:10015C00012B06D1064A7B68002142F823100123AB
:10016C0000E0002318460C37BD4680BC704700BF2A
:10017C003400002080B500AF0020FFF7E1FF0346FC
:10018C00012B08D101224FF4FC51994800F0EAFFF1
:10019C00984B02221A70974B1B78012B40F025814B
:1001AC00954B1B78032B67D801A252F823F000BFA4
:1001BC00CD010008DD010008150200084D02000801
:1001CC008D4B01221A706421002000F04BFC5AE088
:1001DC00012000F07BF9894B1B68012B4ED1884B19
:1001EC001B68013B864A1360854B1B68002B06D1AC
:1001FC00844B1B68824A13607F4B02221A70642165
:10020C00002000F02FFC39E0022000F05FF97B4B5E
:10021C001B68012B34D17A4B1B68013B784A136065
:10022C00774B1B68002B06D1774B1B68744A136005
:10023C00714B03221A706421002000F013FC1FE0A4
:10024C00032000F043F96D4B1B68012B1AD16C4B4A
:10025C001B68013B6A4A1360694B1B68002B06D173
:10026C006A4B1B68664A1360634B01221A70642147
:10027C00002000F0F7FB05E000BF04E000BF02E047
:10028C0000BF00E000BF624B1B78032B66D801A2B5
:10029C0052F823F0B1020008C1020008F90200086C
:1002AC00310300085A4B02221A706421012000F01D
:1002BC00D9FB5AE0012000F065F9504B5B68012B2B
:1002CC004ED1544B1B68013B524A1360514B1B6877
:1002DC00002B06D14B4B1B684E4A13604C4B022231
:1002EC001A706421012000F0BDFB39E0022000F0FF
:1002FC0049F9424B5B68012B34D1464B1B68013BDF
:10030C00444A1360434B1B68002B06D13E4B1B68C1
:10031C00404A13603E4B03221A706421012000F006
:10032C00A1FB1FE0032000F02DF9344B5B68012B7F
:10033C001AD1384B1B68013B364A1360354B1B688E
:10034C00002B06D1314B1B68324A1360304B012213
:10035C001A706421012000F085FB05E000BF04E069
:10036C0000BF02E000BF00E000BF2B4B1B78022B4C
:10037C0022D0022B34DC002B02D0012B08D02FE032
:10038C00254B01221A700121022000F06BFB2CE09E
:10039C001A4B9B68012B25D1194B1B681D4A1268FF
:1003AC001146184600F0F6F91B4B02221A70322146
:1003BC00022000F057FB15E0104B9B68012B13D16A
:1003CC000F4B1B68134A12681146184600F00CFAC2
:1003DC00114B01221A703221022000F043FB03E082
:1003EC0000BF02E000BF00E000BF00BF80BD00BF47
:1003FC0000080140400000204A000020C8000020F6
:10040C005000002004000020080000200000002004
:10041C004B000020540000204C00002080B400AFA2
:10042C00194B01221A70194B00221A70184B00221A
:10043C001A70184B00221A70174B00221A70174BA7
:10044C0000221A70164B00221A70164B00221A70DA
:10045C00154B00221A70154B00221A70144B0022F7
:10046C001A70144B00221A70134B00221A70134B83
:10047C001B68134A1360134B1B68134A136000BFAD
:10048C00BD4680BC704700BF4000002041000020EA
:10049C0042000020430000204400002045000020C2
:1004AC0046000020470000204800002049000020A2
:1004BC004A0000204B0000204C00002000000020CF
:1004CC0050000020040000205400002080B582B0B1
:1004DC0000AF0346FB71FB79032B4BD801A252F8FA
:1004EC0023F000BF01050008210500086105000884
:1004FC004105000801220821214800F033FE0122A9
:10050C0004211F4800F02EFE012202211C4800F09D
:10051C0029FE30E001220821194800F023FE0122B7
:10052C000421174800F01EFE00220221144800F09E
:10053C0019FE20E001220821114800F013FE0022D0
:10054C0004210F4800F00EFE012202210C4800F09D
:10055C0009FE10E000220821094800F003FE0122E8
:10056C000421074800F0FEFD01220221044800F09E
:10057C00F9FD00E000BF00BF0837BD4680BD00BFDD
:10058C000008014080B582B000AF0346FB71FB79D7
:10059C00032B4BD801A252F823F000BFB905000879
:1005AC00D905000819060008F905000801224021A8
:1005BC00214800F0D7FD012220211F4800F0D2FD78
:1005CC00012210211C4800F0CDFD30E00122402119
:1005DC00194800F0C7FD01222021174800F0C2FD88
:1005EC0000221021144800F0BDFD20E00122402122
:1005FC00114800F0B7FD002220210F4800F0B2FD99
:10060C00012210210C4800F0ADFD10E00022402129
:10061C00094800F0A7FD01222021074800F0A2FDA7
:10062C0001221021044800F09DFD00E000BF00BF36
:10063C000837BD4680BD00BF0008014080B586B0BC
:10064C0000AF7860144A07F1080307CA03C31A8085
:10065C0000237B6118E001227B6902FA03F399B253
:10066C0007F108027B6813441B781A467B6942FA2F
:10067C0003F3DBB203F00103DBB21A46074800F0C8
:10068C0071FD7B6901337B617B69062BE3DD00BF68
:10069C0000BF1837BD4680BD381F0008000C014054
:1006AC0080B586B000AF7860144A07F1080307CA1A
:1006BC0003C31A8000237B6118E080227B6902FA55
:1006CC0003F399B207F108027B6813441B781A46AE
:1006DC007B6942FA03F3DBB203F00103DBB21A4687
:1006EC00074800F03FFD7B6901337B617B69062B7A
:1006FC00E3DD00BF00BF1837BD4680BD381F0008C2
:10070C00000C014080B500AF00228021054800F0AC
:10071C0029FD01224FF48071024800F023FD00BF37
:10072C0080BD00BF0008014080B500AF01228021D0
:10073C00054800F017FD00224FF48071024800F0CC
:10074C0011FD00BF80BD00BF0008014080B500AFA7
:10075C0000224FF40071054800F004FD01224FF413
:10076C008061024800F0FEFC00BF80BD0008014023
:10077C0080B500AF01224FF40071054800F0F2FC87
:10078C0000224FF48061024800F0ECFC00BF80BDF9
:10079C000008014080B582B000AF786039607B689A
:1007AC00013B7B603B68013B3B60FFF7ABFF7B6829
:1007BC000C4A82FB03129210DB17D31A1846FFF770
:1007CC003DFFFFF7C3FF3B68064A82FB0312921002
:1007DC00DB17D31A1846FFF763FF00BF0837BD4677
:1007EC0080BD00BF6766666680B582B000AF78607A
:1007FC0039607B68013B7B603B68013B3B60FFF7EA
:10080C0093FF7A68114B83FB02139910D317C91A03
:10081C000B469B000B445B00D11A0846FFF70EFFFA
:10082C00FFF7A6FF3A68094B83FB02139910D31705
:10083C00C91A0B469B000B445B00D11A0846FFF704
:10084C002FFF00BF0837BD4680BD00BF67666666D8
:10085C0080B500AF00F0C4F900F012F800F098F881
:10086C0000F04AF8054801F0C3F8FFF7D7FD002067
:10087C00FFF72CFEFFF77EFCFCE700BF58000020C2
:10088C0080B590B000AF07F118032822002118465C
:10089C0001F014FB3B1D00221A605A609A60DA606A
:1008AC001A610223BB610123BB621023FB6200238C
:1008BC007B6307F11803184600F06CFC0346002B11
:1008CC0001D000F0C9F80F237B600023BB6000232C
:1008DC00FB6000233B6100237B613B1D002118461C
:1008EC0000F0DAFE0346002B01D000F0B5F800BF93
:1008FC004037BD4680BD000080B586B000AF07F123
:10090C00080300221A605A609A60DA603B460022A3
:10091C001A605A601D4B4FF080421A601B4B41F617
:10092C003F725A60194B00229A60184B0922DA6008
:10093C00164B00221A61154B00229A61134801F0E4
:10094C0007F80346002B01D000F086F84FF48053D3
:10095C00BB6007F1080319460C4801F095F80346F3
:10096C00002B01D000F078F800233B6000237B6063
:10097C003B461946054801F049FA0346002B01D0C5
:10098C0000F06AF800BF1837BD4680BD5800002043
:10099C0080B586B000AF07F1080300221A605A60D8
:1009AC009A60DA60294B9B69284A43F004039361EF
:1009BC00264B9B6903F004037B607B68234B9B698C
:1009CC00224A43F008039361204B9B6903F0080310
:1009DC003B603B68002241F6FE711D4800F0C2FBF3
:1009EC00002243F6FF711B4800F0BCFB41F6FE737E
:1009FC00BB600123FB6000233B6102237B6107F199
:100A0C0008031946124800F031FA43F6FF73BB6035
:100A1C000123FB6000233B6102237B6107F1080388
:100A2C0019460C4800F022FA4FF46043BB600023D7
:100A3C00FB6001233B6107F108031946044800F0F1
:100A4C0015FA00BF1837BD4680BD00BF001002402C
:100A5C0000080140000C014080B400AF72B600BF2A
:100A6C0000BFFDE780B483B000AF78603960074900
:100A7C007B683A6841F82320054A7B68002142F8DC
:100A8C00231000BF0C37BD4680BC7047A00000206F
:100A9C00C800002080B485B000AF154B9B69144A88
:100AAC0043F001039361124B9B6903F00103BB609C
:100ABC00BB680F4BDB690E4A43F08053D3610C4B80
:100ACC00DB6903F080537B607B680A4B5B68FB60DF
:100ADC00FB6823F0E063FB60FB6843F08063FB6022
:100AEC00044AFB68536000BF1437BD4680BC704796
:100AFC00001002400000014080B485B000AF786067
:100B0C007B681B68B3F1804F0BD1084BDB69074A3C
:100B1C0043F00103D361054BDB6903F00103FB6078
:100B2C00FB6800BF1437BD4680BC70470010024004
:100B3C0080B400AF00BFFDE780B400AF00BFFDE79D
:100B4C0080B400AF00BFFDE780B400AF00BFFDE78D
:100B5C0080B400AF00BFFDE780B400AF00BFBD465E
:100B6C0080BC704780B400AF00BFBD4680BC7047EE
:100B7C0080B400AF00BFBD4680BC704780B500AFED
:100B8C0000F074F800BF80BD80B400AF00BFBD465C
:100B9C0080BC7047FFF7F8FF0B480C490C4A002348
:100BAC0002E0D458C4500433C4188C42F9D3094A17
:100BBC00094C002301E013600432A242FBD301F084
:100BCC0085F9FFF745FE7047000000201800002053
:100BDC00701F000818000020F4000020FEE7000041
:100BEC0080B500AF084B1B68074A43F01003136035
:100BFC00032000F007F90F2000F008F8FFF74AFF78
:100C0C000023184680BD00BF0020024080B582B092
:100C1C0000AF7860124B1A68124B1B7819464FF4D0
:100C2C007A73B3FBF1F3B2FBF3F3184600F011F94E
:100C3C000346002B01D001230EE07B680F2B0AD852
:100C4C00002279684FF0FF3000F0E7F8064A7B6825
:100C5C001360002300E0012318460837BD4680BD11
:100C6C000C000020140000201000002080B400AF05
:100C7C00054B1B781A46054B1B681344034A13603B
:100C8C0000BFBD4680BC704714000020F00000205F
:100C9C0080B400AF024B1B681846BD4680BC704741
:100CAC00F000002080B485B000AF78607B6803F062
:100CBC000703FB600C4BDB68BB60BA684FF6FF03A5
:100CCC001340BB60FB681A02BB68134343F0BF635D
:100CDC0043F40033BB60044ABB68D36000BF1437D5
:100CEC00BD4680BC704700BF00ED00E080B400AF93
:100CFC00044BDB681B0A03F007031846BD4680BC97
:100D0C00704700BF00ED00E080B483B000AF034635
:100D1C003960FB7197F90730002B0ADB3B68DAB2BC
:100D2C000C4997F907301201D2B20B4483F8002317
:100D3C000AE03B68DAB20849FB7903F00F03043B85
:100D4C001201D2B20B441A7600BF0C37BD4680BCE0
:100D5C00704700BF00E100E000ED00E080B489B016
:100D6C0000AFF860B9607A60FB6803F00703FB61C1
:100D7C00FB69C3F10703042B28BF0423BB61FB6988
:100D8C000433062B02D9FB69033B00E000237B6193
:100D9C004FF0FF32BB6902FA03F3DA43BB681A4027
:100DAC007B699A404FF0FF317B6901FA03F3D94319
:100DBC007B680B40134318462437BD4680BC7047F4
:100DCC0080B582B000AF78607B68013BB3F1807F67
:100DDC0001D301230FE00A4A7B68013B53600F21CA
:100DEC004FF0FF30FFF790FF054B00229A60044B49
:100DFC0007221A60002318460837BD4680BD00BF85
:100E0C0010E000E080B582B000AF78607868FFF742
:100E1C0049FF00BF0837BD4680BD80B586B000AF26
:100E2C000346B9607A60FB7300237B61FFF75EFFBA
:100E3C0078617A68B9687869FFF790FF024697F98C
:100E4C000F3011461846FFF75FFF00BF1837BD463D
:100E5C0080BD80B582B000AF78607868FFF7B0FFD6
:100E6C00034618460837BD4680BD000080B48BB0E1
:100E7C0000AF7860396000237B6200233B6261E144
:100E8C0001227B6A02FA03F3FB613B681B68FA6977
:100E9C001340BB61BA69FB699A4240F050813B68D0
:100EAC005B68974A93425ED0954A934275D8954AAF
:100EBC00934258D0934A93426FD8934A934252D05C
:100ECC00914A934269D8914A93424CD08F4A9342AB
:100EDC0063D88F4A934246D08D4A93425DD8122BE9
:100EEC002AD8122B59D801A252F823F0730F0008FC
:100EFC004D0F00085F0F0008A10F0008A70F000896
:100F0C00A70F0008A70F0008A70F0008A70F0008DD
:100F1C00A70F0008A70F0008A70F0008A70F0008CD
:100F2C00A70F0008A70F0008A70F0008A70F0008BD
:100F3C00550F0008690F0008764A934213D02CE035
:100F4C003B68DB683B6229E03B68DB6804333B624F
:100F5C0024E03B68DB6808333B621FE03B68DB68DE
:100F6C000C333B621AE03B689B68002B02D10423D4
:100F7C003B6213E03B689B68012B05D108233B6265
:100F8C007B68FA691A6109E008233B627B68FA699D
:100F9C005A6103E000233B6200E000BFBB69FF2BFA
:100FAC0001D87B6801E07B6804337B61BB69FF2B54
:100FBC0002D87B6A9B0002E07B6A083B9B003B618A
:100FCC007B691A680F213B6901FA03F3DB431A4072
:100FDC00396A3B6901FA03F31A437B691A603B686F
:100FEC005B6803F08053002B00F0A9804A4B9B698F
:100FFC00494A43F001039361474B9B6903F001039A
:10100C00BB60BB68454A7B6A9B08023352F82330AD
:10101C00FB607B6A03F003039B000F2202FA03F3CD
:10102C00DB43FA681340FB607B683D4A93420DD06A
:10103C007B683C4A934207D07B683B4A934201D180
:10104C00022304E0032302E0012300E000237A6A78
:10105C0002F0030292009340FA681343FB602F499D
:10106C007B6A9B080233FA6841F823203B685B6873
:10107C0003F48013002B06D02C4B9A682B49BB69C8
:10108C0013438B6006E0294B9A68BB69DB43274905
:10109C0013408B603B685B6803F40013002B06D095
:1010AC00224BDA682149BB691343CB6006E01F4B26
:1010BC00DA68BB69DB431D491340CB603B685B6856
:1010CC0003F40033002B06D0184B5A681749BB6940
:1010DC0013434B6006E0154B5A68BB69DB4313495D
:1010EC0013404B603B685B6803F48033002B1FD0CC
:1010FC000E4B1A680D49BB6913430B601FE000BF10
:10110C0000003210000031100000221000002110ED
:10111C0000001210000011100010024000000140ED
:10112C0000080140000C0140001001400004014087
:10113C000B4B1A68BB69DB43094913400B607B6A94
:10114C0001337B623B681A687B6A22FA03F3002B3B
:10115C007FF496AE00BF00BF2C37BD4680BC7047F5
:10116C000004014080B483B000AF78600B467B80F4
:10117C0013467B707B78002B03D07A887B681A61CE
:10118C0003E07B881A047B681A6100BF0C37BD46EC
:10119C0080BC704780B586B000AF78607B68002B50
:1011AC0001D1012372E27B681B6803F00103002B61
:1011BC0000F08780924B5B6803F00C03042B0CD07F
:1011CC008F4B5B6803F00C03082B12D18C4B5B68C4
:1011DC0003F48033B3F5803F0BD1894B1B6803F4C8
:1011EC000033002B6CD07B685B68002B68D101232B
:1011FC004CE27B685B68B3F5803F06D1804B1B6883
:10120C007F4A43F4803313602EE07B685B68002BCD
:10121C000CD17B4B1B687A4A23F480331360784BD8
:10122C001B68774A23F4802313601DE07B685B689E
:10123C00B3F5A02F0CD1724B1B68714A43F4802379
:10124C0013606F4B1B686E4A43F4803313600BE0E2
:10125C006B4B1B686A4A23F480331360684B1B6822
:10126C00674A23F4802313607B685B68002B13D0E0
:10127C00FFF70EFD386108E0FFF70AFD02463B69F7
:10128C00D31A642B01D9032300E25D4B1B6803F4D2
:10129C000033002BF0D014E0FFF7FAFC386108E0C3
:1012AC00FFF7F6FC02463B69D31A642B01D90323E2
:1012BC00ECE1534B1B6803F40033002BF0D100E03E
:1012CC0000BF7B681B6803F00203002B63D04C4B00
:1012DC005B6803F00C03002B0BD0494B5B6803F0ED
:1012EC000C03082B1CD1464B5B6803F48033002B9A
:1012FC0016D1434B1B6803F00203002B05D07B680F
:10130C001B69012B01D00123C0E13D4B1B6823F06D
:10131C00F8027B685B69DB00394913430B603AE0E8
:10132C007B681B69002B20D0364B01221A60FFF71B
:10133C00AFFC386108E0FFF7ABFC02463B69D31AFF
:10134C00022B01D90323A1E12D4B1B6803F00203EF
:10135C00002BF0D02A4B1B6823F0F8027B685B69EA
:10136C00DB00274913430B6015E0264B00221A6063
:10137C00FFF78EFC386108E0FFF78AFC02463B69F8
:10138C00D31A022B01D9032380E11D4B1B6803F0F8
:10139C000203002BF0D17B681B6803F00803002BC1
:1013AC003AD07B689B69002B19D0174B01221A602D
:1013BC00FFF76EFC386108E0FFF76AFC02463B69F8
:1013CC00D31A022B01D9032360E10D4B5B6A03F0A6
:1013DC000203002BF0D0012000F09CFA1CE00A4B19
:1013EC0000221A60FFF754FC38610FE0FFF750FC45
:1013FC0002463B69D31A022B08D9032346E100BFEE
:10140C00001002400000424280044242924B5B6A50
:10141C0003F00203002BE9D17B681B6803F0040383
:10142C00002B00F0A6800023FB758B4BDB6903F0CF
:10143C008053002B0DD1884BDB69874A43F08053D6
:10144C00D361854BDB6903F08053BB60BB68012320
:10145C00FB75824B1B6803F48073002B18D17F4BF8
:10146C001B687E4A43F480731360FFF711FC3861EC
:10147C0008E0FFF70DFC02463B69D31A642B01D937
:10148C00032303E1754B1B6803F48073002BF0D02E
:10149C007B68DB68012B06D16F4B1B6A6E4A43F0ED
:1014AC00010313622DE07B68DB68002B0CD16A4BC7
:1014BC001B6A694A23F001031362674B1B6A664A75
:1014CC0023F0040313621CE07B68DB68052B0CD152
:1014DC00614B1B6A604A43F0040313625E4B1B6A48
:1014EC005D4A43F0010313620BE05B4B1B6A5A4AE3
:1014FC0023F001031362584B1B6A574A23F0040371
:10150C0013627B68DB68002B15D0FFF7C1FB3861D9
:10151C000AE0FFF7BDFB02463B69D31A41F2883261
:10152C00934201D90323B1E04B4B1B6A03F0020336
:10153C00002BEED014E0FFF7ABFB38610AE0FFF7AD
:10154C00A7FB02463B69D31A41F28832934201D978
:10155C0003239BE0404B1B6A03F00203002BEED1EC
:10156C00FB7D012B05D13C4BDB693B4A23F08053BF
:10157C00D3617B68DB69002B00F08780364B5B689E
:10158C0003F00C03082B61D07B68DB69022B46D17E
:10159C00334B00221A60FFF77BFB386108E0FFF742
:1015AC0077FB02463B69D31A022B01D903236DE06A
:1015BC00294B1B6803F00073002BF0D17B681B6A6E
:1015CC00B3F5803F08D1244B5B6823F400327B6871
:1015DC009B68214913434B601F4B5B6823F47412C7
:1015EC007B68196A7B685B6A0B431B4913434B602E
:1015FC001B4B01221A60FFF74BFB386108E0FFF729
:10160C0047FB02463B69D31A022B01D903233DE069
:10161C00114B1B6803F00073002BF0D035E0104B1E
:10162C0000221A60FFF734FB386108E0FFF730FB4B
:10163C0002463B69D31A022B01D9032326E0064B41
:10164C001B6803F00073002BF0D11EE07B68DB6994
:10165C00012B07D1012319E000100240007000405B
:10166C00600042420B4B5B68FB60FB6803F480320A
:10167C007B681B6A9A4206D1FB6803F470127B6884
:10168C005B6A9A4201D0012300E000231846183708
:10169C00BD4680BD0010024080B584B000AF7860BC
:1016AC0039607B68002B01D10123D0E06A4B1B68A9
:1016BC0003F007033A689A4210D9674B1B6823F072
:1016CC00070265493B6813430B60634B1B6803F0CF
:1016DC0007033A689A4201D00123B8E07B681B6883
:1016EC0003F00203002B20D07B681B6803F004037B
:1016FC00002B05D0594B5B68584A43F4E0635360A8
:10170C007B681B6803F00803002B05D0534B5B6808
:10171C00524A43F460535360504B5B6823F0F00221
:10172C007B689B684D4913434B607B681B6803F0D7
:10173C000103002B40D07B685B68012B07D1474B22
:10174C001B6803F40033002B15D101237FE07B6869
:10175C005B68022B07D1414B1B6803F00073002B15
:10176C0009D1012373E03D4B1B6803F00203002BEE
:10177C0001D101236BE0394B5B6823F003027B68DA
:10178C005B68364913434B60FFF782FAF8600AE056
:10179C00FFF77EFA0246FB68D31A41F28832934275
:1017AC0001D9032353E02D4B5B6803F00C027B68DB
:1017BC005B689B009A42EBD1274B1B6803F0070335
:1017CC003A689A4210D2244B1B6823F00702224934
:1017DC003B6813430B60204B1B6803F007033A680C
:1017EC009A4201D0012332E07B681B6803F00403AA
:1017FC00002B08D0194B5B6823F4E0627B68DB6834
:10180C00164913434B607B681B6803F00803002BDD
:10181C0009D0124B5B6823F460527B681B69DB00B8
:10182C000E4913434B6000F021F802460B4B5B68EA
:10183C001B0903F00F030A49CB5C22FA03F3094A94
:10184C001360094B1B681846FFF7E0F90023184694
:10185C001037BD4680BD00BF002002400010024082
:10186C00441F00080C0000201000002080B487B03A
:10187C0000AF0023FB600023BB6000237B610023CF
:10188C007B6000233B611E4B5B68FB60FB6803F0D5
:10189C000C03042B02D0082B03D027E0194B3B611F
:1018AC0027E0FB689B0C03F00F03174AD35C7B60AB
:1018BC00FB6803F48033002B10D0114B5B685B0C7E
:1018CC0003F00103114AD35CBB607B680D4A03FB38
:1018DC0002F2BB68B2FBF3F37B6104E07B680C4A59
:1018EC0002FB03F37B617B693B6102E0054B3B61CF
:1018FC0000BF3B6918461C37BD4680BC704700BF13
:10190C000010024000127A00541F0008641F0008E7
:10191C0000093D0080B485B000AF78600A4B1B68AD
:10192C000A4AA2FB03235B0A7A6802FB03F3FB60FF
:10193C0000BFFB685A1EFA60002BF9D100BF00BF34
:10194C001437BD4680BC70470C000020D34D62108C
:10195C0080B582B000AF78607B68002B01D1012389
:10196C0041E07B6893F83D30DBB2002B06D17B68FD
:10197C00002283F83C207868FFF7BEF87B680222CF
:10198C0083F83D207B681A687B680433194610463F
:10199C0000F042F97B68012283F846207B68012223
:1019AC0083F83E207B68012283F83F207B6801226C
:1019BC0083F840207B68012283F841207B68012258
:1019CC0083F842207B68012283F843207B68012244
:1019DC0083F844207B68012283F845207B68012230
:1019EC0083F83D20002318460837BD4680BD000013
:1019FC0080B485B000AF78607B6893F83D30DBB283
:101A0C00012B01D0012335E07B68022283F83D20B5
:101A1C007B681B68DA687B681B6842F00102DA603D
:101A2C007B681B68164A934209D07B681B68B3F12C
:101A3C00804F04D07B681B68124A934211D17B689B
:101A4C001B689B6803F00703FB60FB68062B10D038
:101A5C007B681B681A687B681B6842F001021A607D
:101A6C0007E07B681B681A687B681B6842F0010200
:101A7C001A60002318461437BD4680BC704700BF5F
:101A8C00002C01400004004080B584B000AF7860A9
:101A9C0039600023FB737B6893F83C30012B01D138
:101AAC000223B4E07B68012283F83C207B6802228D
:101ABC0083F83D207B681B689B68BB60BB6823F088
:101ACC007703BB60BB6823F47F43BB607B681B68F8
:101ADC00BA689A603B681B68B3F5005F3ED0B3F5FB
:101AEC00005F00F28780B3F5805F00F08680B3F56D
:101AFC00805F7FD8702B1AD0702B7BD8602B50D086
:101B0C00602B77D8502B3CD0502B73D8402B58D00F
:101B1C00402B6FD8302B64D0302B6BD8202B60D05F
:101B2C00202B67D8002B5CD0102B5AD062E07B683E
:101B3C0018683B6899683B685A683B68DB6800F03A
:101B4C0046F97B681B689B68BB60BB6843F07703F6
:101B5C00BB607B681B68BA689A604FE07B6818684A
:101B6C003B6899683B685A683B68DB6800F02FF962
:101B7C007B681B689A687B681B6842F480429A6099
:101B8C003CE07B6818683B6859683B68DB681A4620
:101B9C0000F0A6F87B681B685021184600F0FDF891
:101BAC002CE07B6818683B6859683B68DB681A4610
:101BBC0000F0C4F87B681B686021184600F0EDF853
:101BCC001CE07B6818683B6859683B68DB681A4600
:101BDC0000F086F87B681B684021184600F0DDF8A1
:101BEC000CE07B681A683B681B681946104600F0CD
:101BFC00D4F803E00123FB7300E000BF7B680122F3
:101C0C0083F83D207B68002283F83C20FB7B184640
:101C1C001037BD4680BD000080B485B000AF786041
:101C2C0039607B681B68FB607B682B4A934207D04A
:101C3C007B68B3F1804F03D07B68284A934208D16C
:101C4C00FB6823F07003FB603B685B68FA68134326
:101C5C00FB607B68204A934207D07B68B3F1804FCE
:101C6C0003D07B681D4A934208D1FB6823F4407370
:101C7C00FB603B68DB68FA681343FB60FB6823F08E
:101C8C0080023B685B691343FB607B68FA681A60EF
:101C9C003B689A687B68DA623B681A687B689A6270
:101CAC007B680D4A934203D13B681A697B681A63BF
:101CBC007B6801225A617B681B6903F00103002BCE
:101CCC0005D07B681B6923F001027B681A6100BF99
:101CDC001437BD4680BC7047002C01400004004006
:101CEC0080B487B000AFF860B9607A60FB681B6A9B
:101CFC007B61FB681B6A23F00102FB681A62FB68BC
:101D0C009B693B613B6923F0F0033B617B681B01E2
:101D1C003A6913433B617B6923F00A037B617A695F
:101D2C00BB6813437B61FB683A699A61FB687A690B
:101D3C001A6200BF1C37BD4680BC704780B487B0A8
:101D4C0000AFF860B9607A60FB681B6A7B61FB6866
:101D5C001B6A23F01002FB681A62FB689B693B61EB
:101D6C003B6923F470433B617B681B033A69134363
:101D7C003B617B6923F0A0037B61BB681B017A6923
:101D8C0013437B61FB683A699A61FB687A691A6252
:101D9C0000BF1C37BD4680BC704780B485B000AF17
:101DAC00786039607B689B68FB60FB6823F070038C
:101DBC00FB603A68FB68134343F00703FB607B68E6
:101DCC00FA689A6000BF1437BD4680BC704780B477
:101DDC0087B000AFF860B9607A603B60FB689B68C5
:101DEC007B617B6923F47F437B613B681A027B68D0
:101DFC001A43BB6813437A6913437B61FB687A69A6
:101E0C009A6000BF1C37BD4680BC704780B485B05B
:101E1C0000AF786039607B6893F83C30012B01D1BE
:101E2C00022341E07B68012283F83C207B6802227C
:101E3C0083F83D207B681B685B68FB607B681B68D4
:101E4C009B68BB60FB6823F07003FB603B681B68FE
:101E5C00FA681343FB607B681B68FA685A607B68FE
:101E6C001B68144A934209D07B681B68B3F1804FFE
:101E7C0004D07B681B68104A93420CD1BB6823F0DA
:101E8C008003BB603B685B68BA681343BB607B68CC
:101E9C001B68BA689A607B68012283F83D207B68D6
:101EAC00002283F83C20002318461437BD4680BC22
:101EBC00704700BF002C0140000400400346024460
:101ECC00934200D1704703F8011BF9E770B5002667
:101EDC000C4D0D4C641BA410A64209D100F01AF84D
:101EEC0000260A4D0A4C641BA410A64205D170BDF5
:101EFC0055F8043B98470136EEE755F8043B9847F4
:101F0C000136F2E7681F0008681F0008681F000808
:101F1C006C1F0008F8B500BFF8BC08BC9E467047A3
:0C1F2C00F8B500BFF8BC08BC9E4670472A
:101F3800C0F9A4B0999282F88090000000000000D7
:101F48000000000001020304060708090203040553
:101F5800060708090A0B0C0D0E0F101001020000ED
:041F6800310100083B
:041F6C000D0100085B
:101F70000A000000060000000400000000127A00C1
:081F8000100000000100000048
:0400000508000BA143
:00000001FF
